{
  "contractName": "NFTAirdrop",
  "abi": [
    {
      "inputs": [],
      "stateMutability": "nonpayable",
      "type": "constructor"
    },
    {
      "inputs": [],
      "name": "admin",
      "outputs": [
        {
          "internalType": "address",
          "name": "",
          "type": "address"
        }
      ],
      "stateMutability": "view",
      "type": "function",
      "constant": true
    },
    {
      "inputs": [
        {
          "internalType": "uint256",
          "name": "",
          "type": "uint256"
        }
      ],
      "name": "airdrops",
      "outputs": [
        {
          "internalType": "address",
          "name": "nft",
          "type": "address"
        },
        {
          "internalType": "uint256",
          "name": "id",
          "type": "uint256"
        }
      ],
      "stateMutability": "view",
      "type": "function",
      "constant": true
    },
    {
      "inputs": [],
      "name": "nextAirdropId",
      "outputs": [
        {
          "internalType": "uint256",
          "name": "",
          "type": "uint256"
        }
      ],
      "stateMutability": "view",
      "type": "function",
      "constant": true
    },
    {
      "inputs": [
        {
          "internalType": "address",
          "name": "",
          "type": "address"
        }
      ],
      "name": "recipients",
      "outputs": [
        {
          "internalType": "bool",
          "name": "",
          "type": "bool"
        }
      ],
      "stateMutability": "view",
      "type": "function",
      "constant": true
    },
    {
      "inputs": [
        {
          "components": [
            {
              "internalType": "address",
              "name": "nft",
              "type": "address"
            },
            {
              "internalType": "uint256",
              "name": "id",
              "type": "uint256"
            }
          ],
          "internalType": "struct NFTAirdrop.Airdrop[]",
          "name": "_airdrops",
          "type": "tuple[]"
        }
      ],
      "name": "addAirdrops",
      "outputs": [],
      "stateMutability": "nonpayable",
      "type": "function"
    },
    {
      "inputs": [
        {
          "internalType": "address[]",
          "name": "_recipients",
          "type": "address[]"
        }
      ],
      "name": "addRecipients",
      "outputs": [],
      "stateMutability": "nonpayable",
      "type": "function"
    },
    {
      "inputs": [
        {
          "internalType": "address[]",
          "name": "_recipients",
          "type": "address[]"
        }
      ],
      "name": "removeRecipients",
      "outputs": [],
      "stateMutability": "nonpayable",
      "type": "function"
    },
    {
      "inputs": [],
      "name": "claim",
      "outputs": [],
      "stateMutability": "nonpayable",
      "type": "function"
    }
  ],
  "bytecode": "0x608060405234801561001057600080fd5b5033600160006101000a81548173ffffffffffffffffffffffffffffffffffffffff021916908373ffffffffffffffffffffffffffffffffffffffff160217905550610eca806100616000396000f3fe608060405234801561001057600080fd5b50600436106100885760003560e01c8063aff38dc81161005b578063aff38dc814610100578063eb8203121461011e578063f851a4401461014e578063f8c8285b1461016c57610088565b806329af54cc1461008d5780634e71d92d146100a957806360db5082146100b3578063639ab82f146100e4575b600080fd5b6100a760048036038101906100a29190610a94565b610188565b005b6100b16102d3565b005b6100cd60048036038101906100c89190610b16565b610487565b6040516100db929190610c3e565b60405180910390f35b6100fe60048036038101906100f99190610a94565b6104cb565b005b610108610616565b6040516101159190610cc2565b60405180910390f35b61013860048036038101906101339190610a6b565b61061c565b6040516101459190610c67565b60405180910390f35b61015661063c565b6040516101639190610bec565b60405180910390f35b61018660048036038101906101819190610ad5565b610662565b005b600160009054906101000a900473ffffffffffffffffffffffffffffffffffffffff1673ffffffffffffffffffffffffffffffffffffffff163373ffffffffffffffffffffffffffffffffffffffff1614610218576040517f08c379a000000000000000000000000000000000000000000000000000000000815260040161020f90610c82565b60405180910390fd5b60005b81518110156102cf57600160036000848481518110610263577f4e487b7100000000000000000000000000000000000000000000000000000000600052603260045260246000fd5b602002602001015173ffffffffffffffffffffffffffffffffffffffff1673ffffffffffffffffffffffffffffffffffffffff16815260200190815260200160002060006101000a81548160ff02191690831515021790555080806102c790610dbf565b91505061021b565b5050565b60011515600360003373ffffffffffffffffffffffffffffffffffffffff1673ffffffffffffffffffffffffffffffffffffffff16815260200190815260200160002060009054906101000a900460ff16151514610366576040517f08c379a000000000000000000000000000000000000000000000000000000000815260040161035d90610ca2565b60405180910390fd5b6000600360003373ffffffffffffffffffffffffffffffffffffffff1673ffffffffffffffffffffffffffffffffffffffff16815260200190815260200160002060006101000a81548160ff0219169083151502179055506000600260008054815260200190815260200160002090508060000160009054906101000a900473ffffffffffffffffffffffffffffffffffffffff1673ffffffffffffffffffffffffffffffffffffffff166323b872dd303384600101546040518463ffffffff1660e01b815260040161043b93929190610c07565b600060405180830381600087803b15801561045557600080fd5b505af1158015610469573d6000803e3d6000fd5b5050505060008081548092919061047f90610dbf565b919050555050565b60026020528060005260406000206000915090508060000160009054906101000a900473ffffffffffffffffffffffffffffffffffffffff16908060010154905082565b600160009054906101000a900473ffffffffffffffffffffffffffffffffffffffff1673ffffffffffffffffffffffffffffffffffffffff163373ffffffffffffffffffffffffffffffffffffffff161461055b576040517f08c379a000000000000000000000000000000000000000000000000000000000815260040161055290610c82565b60405180910390fd5b60005b8151811015610612576000600360008484815181106105a6577f4e487b7100000000000000000000000000000000000000000000000000000000600052603260045260246000fd5b602002602001015173ffffffffffffffffffffffffffffffffffffffff1673ffffffffffffffffffffffffffffffffffffffff16815260200190815260200160002060006101000a81548160ff021916908315150217905550808061060a90610dbf565b91505061055e565b5050565b60005481565b60036020528060005260406000206000915054906101000a900460ff1681565b600160009054906101000a900473ffffffffffffffffffffffffffffffffffffffff1681565b600080549050600160009054906101000a900473ffffffffffffffffffffffffffffffffffffffff1673ffffffffffffffffffffffffffffffffffffffff163373ffffffffffffffffffffffffffffffffffffffff16146106f8576040517f08c379a00000000000000000000000000000000000000000000000000000000081526004016106ef90610c82565b60405180910390fd5b60005b82518110156108c45782818151811061073d577f4e487b7100000000000000000000000000000000000000000000000000000000600052603260045260246000fd5b60200260200101516002600084815260200190815260200160002060008201518160000160006101000a81548173ffffffffffffffffffffffffffffffffffffffff021916908373ffffffffffffffffffffffffffffffffffffffff160217905550602082015181600101559050508281815181106107e5577f4e487b7100000000000000000000000000000000000000000000000000000000600052603260045260246000fd5b60200260200101516000015173ffffffffffffffffffffffffffffffffffffffff166323b872dd3330868581518110610847577f4e487b7100000000000000000000000000000000000000000000000000000000600052603260045260246000fd5b6020026020010151602001516040518463ffffffff1660e01b815260040161087193929190610c07565b600060405180830381600087803b15801561088b57600080fd5b505af115801561089f573d6000803e3d6000fd5b5050505081806108ae90610dbf565b92505080806108bc90610dbf565b9150506106fb565b505050565b60006108dc6108d784610d0e565b610cdd565b905080838252602082019050828560208602820111156108fb57600080fd5b60005b8581101561092b578161091188826109a1565b8452602084019350602083019250506001810190506108fe565b5050509392505050565b600061094861094384610d3a565b610cdd565b9050808382526020820190508285604086028201111561096757600080fd5b60005b85811015610997578161097d8882610a0a565b84526020840193506040830192505060018101905061096a565b5050509392505050565b6000813590506109b081610e66565b92915050565b600082601f8301126109c757600080fd5b81356109d78482602086016108c9565b91505092915050565b600082601f8301126109f157600080fd5b8135610a01848260208601610935565b91505092915050565b600060408284031215610a1c57600080fd5b610a266040610cdd565b90506000610a36848285016109a1565b6000830152506020610a4a84828501610a56565b60208301525092915050565b600081359050610a6581610e7d565b92915050565b600060208284031215610a7d57600080fd5b6000610a8b848285016109a1565b91505092915050565b600060208284031215610aa657600080fd5b600082013567ffffffffffffffff811115610ac057600080fd5b610acc848285016109b6565b91505092915050565b600060208284031215610ae757600080fd5b600082013567ffffffffffffffff811115610b0157600080fd5b610b0d848285016109e0565b91505092915050565b600060208284031215610b2857600080fd5b6000610b3684828501610a56565b91505092915050565b610b4881610d77565b82525050565b610b5781610d89565b82525050565b6000610b6a600a83610d66565b91507f6f6e6c792061646d696e000000000000000000000000000000000000000000006000830152602082019050919050565b6000610baa601883610d66565b91507f726563697069656e74206e6f74207265676973746572656400000000000000006000830152602082019050919050565b610be681610db5565b82525050565b6000602082019050610c016000830184610b3f565b92915050565b6000606082019050610c1c6000830186610b3f565b610c296020830185610b3f565b610c366040830184610bdd565b949350505050565b6000604082019050610c536000830185610b3f565b610c606020830184610bdd565b9392505050565b6000602082019050610c7c6000830184610b4e565b92915050565b60006020820190508181036000830152610c9b81610b5d565b9050919050565b60006020820190508181036000830152610cbb81610b9d565b9050919050565b6000602082019050610cd76000830184610bdd565b92915050565b6000604051905081810181811067ffffffffffffffff82111715610d0457610d03610e37565b5b8060405250919050565b600067ffffffffffffffff821115610d2957610d28610e37565b5b602082029050602081019050919050565b600067ffffffffffffffff821115610d5557610d54610e37565b5b602082029050602081019050919050565b600082825260208201905092915050565b6000610d8282610d95565b9050919050565b60008115159050919050565b600073ffffffffffffffffffffffffffffffffffffffff82169050919050565b6000819050919050565b6000610dca82610db5565b91507fffffffffffffffffffffffffffffffffffffffffffffffffffffffffffffffff821415610dfd57610dfc610e08565b5b600182019050919050565b7f4e487b7100000000000000000000000000000000000000000000000000000000600052601160045260246000fd5b7f4e487b7100000000000000000000000000000000000000000000000000000000600052604160045260246000fd5b610e6f81610d77565b8114610e7a57600080fd5b50565b610e8681610db5565b8114610e9157600080fd5b5056fea2646970667358221220cc2a482015f52d6534cc3951409f61c016bf0c69093caf8ab5b538b8f44973ff64736f6c63430008000033",
  "immutableReferences": {},
  "source": "// SPDX-License-Identifier: MIT\r\npragma solidity 0.8.0;\r\n\r\nimport '@openzeppelin/contracts/token/ERC721/IERC721.sol';\r\n\r\ncontract NFTAirdrop {\r\n  struct Airdrop {\r\n    address nft;\r\n    uint id;\r\n  }\r\n  uint public nextAirdropId;\r\n  address public admin;\r\n  mapping(uint => Airdrop) public airdrops;\r\n  mapping(address => bool) public recipients;\r\n\r\n  constructor() {\r\n    admin = msg.sender;\r\n  }\r\n\r\n  function addAirdrops(Airdrop[] memory _airdrops) external {\r\n    uint _nextAirdropId = nextAirdropId;\r\n     require(msg.sender == admin, 'only admin');\r\n    for(uint i = 0; i < _airdrops.length; i++) {\r\n      airdrops[_nextAirdropId] = _airdrops[i];\r\n      IERC721(_airdrops[i].nft).transferFrom(\r\n        msg.sender, \r\n        address(this), \r\n        _airdrops[i].id\r\n      );\r\n      _nextAirdropId++;\r\n    }\r\n  }\r\n\r\n  function addRecipients(address[] memory _recipients) external {\r\n    require(msg.sender == admin, 'only admin');\r\n    for(uint i = 0; i < _recipients.length; i++) {\r\n      recipients[_recipients[i]] = true;\r\n    }\r\n  }\r\n\r\n  function removeRecipients(address[] memory _recipients) external {\r\n    require(msg.sender == admin, 'only admin');\r\n    for(uint i = 0; i < _recipients.length; i++) {\r\n      recipients[_recipients[i]] = false;\r\n    }\r\n  }\r\n\r\n  function claim() external {\r\n    require(recipients[msg.sender] == true, 'recipient not registered');\r\n    recipients[msg.sender] = false;\r\n    Airdrop storage airdrop = airdrops[nextAirdropId];\r\n    IERC721(airdrop.nft).transferFrom(address(this), msg.sender, airdrop.id);\r\n    nextAirdropId++;\r\n  }\r\n}",
  "sourcePath": "C:\\eth-test-airdorp1\\contracts\\NFTAirdrop.sol",
  "compiler": {
    "name": "solc",
    "version": "0.8.0+commit.c7dfd78e.Emscripten.clang"
  },
  "schemaVersion": "3.4.4",
  "updatedAt": "2022-01-27T16:10:49.192Z",
  "networkType": "ethereum",
  "devdoc": {
    "kind": "dev",
    "methods": {},
    "version": 1
  },
  "userdoc": {
    "kind": "user",
    "methods": {},
    "version": 1
  }
}